{
  "_format": "hh-sol-artifact-1",
  "contractName": "AgentVault",
  "sourceName": "contracts/AgentVault.sol",
  "abi": [
    {
      "inputs": [
        {
          "internalType": "address",
          "name": "_underlying",
          "type": "address"
        },
        {
          "internalType": "address",
          "name": "_agent",
          "type": "address"
        },
        {
          "internalType": "address",
          "name": "_epochManager",
          "type": "address"
        },
        {
          "internalType": "address",
          "name": "_adapterRegistry",
          "type": "address"
        }
      ],
      "stateMutability": "nonpayable",
      "type": "constructor"
    },
    {
      "anonymous": false,
      "inputs": [
        {
          "indexed": true,
          "internalType": "address",
          "name": "adapter",
          "type": "address"
        },
        {
          "indexed": false,
          "internalType": "bytes4",
          "name": "selector",
          "type": "bytes4"
        }
      ],
      "name": "AdapterCall",
      "type": "event"
    },
    {
      "anonymous": false,
      "inputs": [
        {
          "indexed": true,
          "internalType": "address",
          "name": "user",
          "type": "address"
        },
        {
          "indexed": false,
          "internalType": "uint256",
          "name": "amount",
          "type": "uint256"
        },
        {
          "indexed": false,
          "internalType": "uint256",
          "name": "sharesMinted",
          "type": "uint256"
        }
      ],
      "name": "Deposit",
      "type": "event"
    },
    {
      "anonymous": false,
      "inputs": [
        {
          "indexed": true,
          "internalType": "address",
          "name": "user",
          "type": "address"
        },
        {
          "indexed": false,
          "internalType": "uint256",
          "name": "sharesBurned",
          "type": "uint256"
        },
        {
          "indexed": false,
          "internalType": "uint256",
          "name": "amount",
          "type": "uint256"
        }
      ],
      "name": "WithdrawFinalized",
      "type": "event"
    },
    {
      "anonymous": false,
      "inputs": [
        {
          "indexed": true,
          "internalType": "address",
          "name": "user",
          "type": "address"
        },
        {
          "indexed": false,
          "internalType": "uint256",
          "name": "shares",
          "type": "uint256"
        },
        {
          "indexed": false,
          "internalType": "uint256",
          "name": "epoch",
          "type": "uint256"
        }
      ],
      "name": "WithdrawRequested",
      "type": "event"
    },
    {
      "inputs": [
        {
          "internalType": "address",
          "name": "adapter",
          "type": "address"
        },
        {
          "internalType": "bytes",
          "name": "data",
          "type": "bytes"
        }
      ],
      "name": "adapterCall",
      "outputs": [],
      "stateMutability": "nonpayable",
      "type": "function"
    },
    {
      "inputs": [],
      "name": "adapterRegistry",
      "outputs": [
        {
          "internalType": "address",
          "name": "",
          "type": "address"
        }
      ],
      "stateMutability": "view",
      "type": "function"
    },
    {
      "inputs": [],
      "name": "agent",
      "outputs": [
        {
          "internalType": "address",
          "name": "",
          "type": "address"
        }
      ],
      "stateMutability": "view",
      "type": "function"
    },
    {
      "inputs": [
        {
          "internalType": "uint256",
          "name": "amount",
          "type": "uint256"
        }
      ],
      "name": "deposit",
      "outputs": [],
      "stateMutability": "nonpayable",
      "type": "function"
    },
    {
      "inputs": [],
      "name": "epochManager",
      "outputs": [
        {
          "internalType": "address",
          "name": "",
          "type": "address"
        }
      ],
      "stateMutability": "view",
      "type": "function"
    },
    {
      "inputs": [
        {
          "internalType": "address",
          "name": "user",
          "type": "address"
        }
      ],
      "name": "finalizeWithdraw",
      "outputs": [],
      "stateMutability": "nonpayable",
      "type": "function"
    },
    {
      "inputs": [
        {
          "internalType": "uint256",
          "name": "shareAmount",
          "type": "uint256"
        }
      ],
      "name": "requestWithdraw",
      "outputs": [],
      "stateMutability": "nonpayable",
      "type": "function"
    },
    {
      "inputs": [
        {
          "internalType": "address",
          "name": "",
          "type": "address"
        }
      ],
      "name": "shares",
      "outputs": [
        {
          "internalType": "uint256",
          "name": "",
          "type": "uint256"
        }
      ],
      "stateMutability": "view",
      "type": "function"
    },
    {
      "inputs": [],
      "name": "totalAssets",
      "outputs": [
        {
          "internalType": "uint256",
          "name": "",
          "type": "uint256"
        }
      ],
      "stateMutability": "view",
      "type": "function"
    },
    {
      "inputs": [],
      "name": "totalShares",
      "outputs": [
        {
          "internalType": "uint256",
          "name": "",
          "type": "uint256"
        }
      ],
      "stateMutability": "view",
      "type": "function"
    },
    {
      "inputs": [],
      "name": "underlying",
      "outputs": [
        {
          "internalType": "address",
          "name": "",
          "type": "address"
        }
      ],
      "stateMutability": "view",
      "type": "function"
    },
    {
      "inputs": [
        {
          "internalType": "address",
          "name": "",
          "type": "address"
        }
      ],
      "name": "withdrawRequests",
      "outputs": [
        {
          "internalType": "uint256",
          "name": "shares",
          "type": "uint256"
        },
        {
          "internalType": "uint256",
          "name": "epoch",
          "type": "uint256"
        }
      ],
      "stateMutability": "view",
      "type": "function"
    }
  ],
  "bytecode": "0x60806040523480156200001157600080fd5b506040516200220f3803806200220f833981810160405281019062000037919062000376565b600073ffffffffffffffffffffffffffffffffffffffff168473ffffffffffffffffffffffffffffffffffffffff1603620000a9576040517f08c379a0000000000000000000000000000000000000000000000000000000008152600401620000a09062000449565b60405180910390fd5b600073ffffffffffffffffffffffffffffffffffffffff168373ffffffffffffffffffffffffffffffffffffffff16036200011b576040517f08c379a00000000000000000000000000000000000000000000000000000000081526004016200011290620004bb565b60405180910390fd5b600073ffffffffffffffffffffffffffffffffffffffff168273ffffffffffffffffffffffffffffffffffffffff16036200018d576040517f08c379a000000000000000000000000000000000000000000000000000000000815260040162000184906200052d565b60405180910390fd5b600073ffffffffffffffffffffffffffffffffffffffff168173ffffffffffffffffffffffffffffffffffffffff1603620001ff576040517f08c379a0000000000000000000000000000000000000000000000000000000008152600401620001f6906200059f565b60405180910390fd5b836000806101000a81548173ffffffffffffffffffffffffffffffffffffffff021916908373ffffffffffffffffffffffffffffffffffffffff16021790555082600160006101000a81548173ffffffffffffffffffffffffffffffffffffffff021916908373ffffffffffffffffffffffffffffffffffffffff16021790555081600260006101000a81548173ffffffffffffffffffffffffffffffffffffffff021916908373ffffffffffffffffffffffffffffffffffffffff16021790555080600360006101000a81548173ffffffffffffffffffffffffffffffffffffffff021916908373ffffffffffffffffffffffffffffffffffffffff16021790555050505050620005c1565b600080fd5b600073ffffffffffffffffffffffffffffffffffffffff82169050919050565b60006200033e8262000311565b9050919050565b620003508162000331565b81146200035c57600080fd5b50565b600081519050620003708162000345565b92915050565b600080600080608085870312156200039357620003926200030c565b5b6000620003a3878288016200035f565b9450506020620003b6878288016200035f565b9350506040620003c9878288016200035f565b9250506060620003dc878288016200035f565b91505092959194509250565b600082825260208201905092915050565b7f494e565f554e4445524c59494e475f5a45524f00000000000000000000000000600082015250565b600062000431601383620003e8565b91506200043e82620003f9565b602082019050919050565b60006020820190508181036000830152620004648162000422565b9050919050565b7f494e565f4147454e545f5a45524f000000000000000000000000000000000000600082015250565b6000620004a3600e83620003e8565b9150620004b0826200046b565b602082019050919050565b60006020820190508181036000830152620004d68162000494565b9050919050565b7f494e565f45504f43485f5a45524f000000000000000000000000000000000000600082015250565b600062000515600e83620003e8565b91506200052282620004dd565b602082019050919050565b60006020820190508181036000830152620005488162000506565b9050919050565b7f494e565f52454749535452595f5a45524f000000000000000000000000000000600082015250565b600062000587601183620003e8565b915062000594826200054f565b602082019050919050565b60006020820190508181036000830152620005ba8162000578565b9050919050565b611c3e80620005d16000396000f3fe608060405234801561001057600080fd5b50600436106100b45760003560e01c8063b0359ee911610071578063b0359ee91461017e578063b6b55f251461019a578063ce7c2ac2146101b6578063e2d2bfe3146101e6578063f5ff5c7614610204578063f85494de14610222576100b4565b806301e1d114146100b95780633a98ef39146100d757806350b5c16a146100f557806352df49ec146101135780636f307dc314610144578063745400c914610162575b600080fd5b6100c161023e565b6040516100ce9190611156565b60405180910390f35b6100df6102e0565b6040516100ec9190611156565b60405180910390f35b6100fd6102e6565b60405161010a91906111b2565b60405180910390f35b61012d60048036038101906101289190611203565b61030c565b60405161013b929190611230565b60405180910390f35b61014c610330565b60405161015991906111b2565b60405180910390f35b61017c60048036038101906101779190611285565b610354565b005b61019860048036038101906101939190611317565b610605565b005b6101b460048036038101906101af9190611285565b6109f0565b005b6101d060048036038101906101cb9190611203565b610c54565b6040516101dd9190611156565b60405180910390f35b6101ee610c6c565b6040516101fb91906111b2565b60405180910390f35b61020c610c92565b60405161021991906111b2565b60405180910390f35b61023c60048036038101906102379190611203565b610cb8565b005b60008060009054906101000a900473ffffffffffffffffffffffffffffffffffffffff1673ffffffffffffffffffffffffffffffffffffffff166370a08231306040518263ffffffff1660e01b815260040161029a91906111b2565b602060405180830381865afa1580156102b7573d6000803e3d6000fd5b505050506040513d601f19601f820116820180604052508101906102db919061138c565b905090565b60045481565b600360009054906101000a900473ffffffffffffffffffffffffffffffffffffffff1681565b60066020528060005260406000206000915090508060000154908060010154905082565b60008054906101000a900473ffffffffffffffffffffffffffffffffffffffff1681565b60008111610397576040517f08c379a000000000000000000000000000000000000000000000000000000000815260040161038e90611416565b60405180910390fd5b80600560003373ffffffffffffffffffffffffffffffffffffffff1673ffffffffffffffffffffffffffffffffffffffff168152602001908152602001600020541015610419576040517f08c379a000000000000000000000000000000000000000000000000000000000815260040161041090611482565b60405180910390fd5b6000600260009054906101000a900473ffffffffffffffffffffffffffffffffffffffff1673ffffffffffffffffffffffffffffffffffffffff1663766718086040518163ffffffff1660e01b8152600401602060405180830381865afa158015610488573d6000803e3d6000fd5b505050506040513d601f19601f820116820180604052508101906104ac919061138c565b90506000600660003373ffffffffffffffffffffffffffffffffffffffff1673ffffffffffffffffffffffffffffffffffffffff16815260200190815260200160002090506000816000015411156105455781816001015403610544576040517f08c379a000000000000000000000000000000000000000000000000000000000815260040161053b906114ee565b60405180910390fd5b5b604051806040016040528084815260200183815250600660003373ffffffffffffffffffffffffffffffffffffffff1673ffffffffffffffffffffffffffffffffffffffff16815260200190815260200160002060008201518160000155602082015181600101559050503373ffffffffffffffffffffffffffffffffffffffff167fd72eb5d043f24a0168ae744d5c44f9596fd673a26bf74d9646bff4b844882d1484846040516105f8929190611230565b60405180910390a2505050565b600160009054906101000a900473ffffffffffffffffffffffffffffffffffffffff1673ffffffffffffffffffffffffffffffffffffffff163373ffffffffffffffffffffffffffffffffffffffff1614610695576040517f08c379a000000000000000000000000000000000000000000000000000000000815260040161068c9061155a565b60405180910390fd5b600360009054906101000a900473ffffffffffffffffffffffffffffffffffffffff1673ffffffffffffffffffffffffffffffffffffffff166368c18beb846040518263ffffffff1660e01b81526004016106f091906111b2565b602060405180830381865afa15801561070d573d6000803e3d6000fd5b505050506040513d601f19601f8201168201806040525081019061073191906115b2565b610770576040517f08c379a00000000000000000000000000000000000000000000000000000000081526004016107679061162b565b60405180910390fd5b60008373ffffffffffffffffffffffffffffffffffffffff16838360405161079992919061168a565b6000604051808303816000865af19150503d80600081146107d6576040519150601f19603f3d011682016040523d82523d6000602084013e6107db565b606091505b505090508061081f576040517f08c379a0000000000000000000000000000000000000000000000000000000008152600401610816906116ef565b60405180910390fd5b60006004848490501061099b576018848460038181106108425761084161170f565b5b9050013560f81c60f81b7effffffffffffffffffffffffffffffffffffffffffffffffffffffffffffff19167bffffffffffffffffffffffffffffffffffffffffffffffffffffffff1916901c6010858560028181106108a5576108a461170f565b5b9050013560f81c60f81b7effffffffffffffffffffffffffffffffffffffffffffffffffffffffffffff19167bffffffffffffffffffffffffffffffffffffffffffffffffffffffff1916901c6008868660018181106109085761090761170f565b5b9050013560f81c60f81b7effffffffffffffffffffffffffffffffffffffffffffffffffffffffffffff19167bffffffffffffffffffffffffffffffffffffffffffffffffffffffff1916901c868660008181106109695761096861170f565b5b9050013560f81c60f81b7effffffffffffffffffffffffffffffffffffffffffffffffffffffffffffff191617171790505b8473ffffffffffffffffffffffffffffffffffffffff167f7f4bc984832db639569ddb679fe8815e1c0ebb499681ce10f52ee1ed870d2661826040516109e19190611779565b60405180910390a25050505050565b60008111610a33576040517f08c379a0000000000000000000000000000000000000000000000000000000008152600401610a2a906117e0565b60405180910390fd5b6000610a3d61023e565b905060008060045403610a5257829050610a6e565b8160045484610a61919061182f565b610a6b91906118a0565b90505b60008111610ab1576040517f08c379a0000000000000000000000000000000000000000000000000000000008152600401610aa890611416565b60405180910390fd5b8060046000828254610ac391906118d1565b9250508190555080600560003373ffffffffffffffffffffffffffffffffffffffff1673ffffffffffffffffffffffffffffffffffffffff1681526020019081526020016000206000828254610b1991906118d1565b9250508190555060008054906101000a900473ffffffffffffffffffffffffffffffffffffffff1673ffffffffffffffffffffffffffffffffffffffff166323b872dd3330866040518463ffffffff1660e01b8152600401610b7d93929190611905565b6020604051808303816000875af1158015610b9c573d6000803e3d6000fd5b505050506040513d601f19601f82011682018060405250810190610bc091906115b2565b610bff576040517f08c379a0000000000000000000000000000000000000000000000000000000008152600401610bf690611988565b60405180910390fd5b3373ffffffffffffffffffffffffffffffffffffffff167f90890809c654f11d6e72a28fa60149770a0d11ec6c92319d6ceb2bb0a4ea1a158483604051610c47929190611230565b60405180910390a2505050565b60056020528060005260406000206000915090505481565b600260009054906101000a900473ffffffffffffffffffffffffffffffffffffffff1681565b600160009054906101000a900473ffffffffffffffffffffffffffffffffffffffff1681565b6000600660008373ffffffffffffffffffffffffffffffffffffffff1673ffffffffffffffffffffffffffffffffffffffff1681526020019081526020016000206040518060400160405290816000820154815260200160018201548152505090506000816000015111610d61576040517f08c379a0000000000000000000000000000000000000000000000000000000008152600401610d58906119f4565b60405180910390fd5b6000600260009054906101000a900473ffffffffffffffffffffffffffffffffffffffff1673ffffffffffffffffffffffffffffffffffffffff1663c6b61e4c83602001516040518263ffffffff1660e01b8152600401610dc29190611156565b606060405180830381865afa158015610ddf573d6000803e3d6000fd5b505050506040513d601f19601f82011682018060405250810190610e039190611a14565b9250505080610e47576040517f08c379a0000000000000000000000000000000000000000000000000000000008152600401610e3e90611ab3565b60405180910390fd5b6000600560008573ffffffffffffffffffffffffffffffffffffffff1673ffffffffffffffffffffffffffffffffffffffff1681526020019081526020016000205490508260000151811015610ed2576040517f08c379a0000000000000000000000000000000000000000000000000000000008152600401610ec990611b1f565b60405180910390fd5b6000610edc61023e565b90506000600454856000015183610ef3919061182f565b610efd91906118a0565b905060008111610f42576040517f08c379a0000000000000000000000000000000000000000000000000000000008152600401610f3990611b8b565b60405180910390fd5b846000015183610f529190611bab565b600560008873ffffffffffffffffffffffffffffffffffffffff1673ffffffffffffffffffffffffffffffffffffffff16815260200190815260200160002081905550846000015160046000828254610fab9190611bab565b92505081905550600660008773ffffffffffffffffffffffffffffffffffffffff1673ffffffffffffffffffffffffffffffffffffffff1681526020019081526020016000206000808201600090556001820160009055505060008054906101000a900473ffffffffffffffffffffffffffffffffffffffff1673ffffffffffffffffffffffffffffffffffffffff1663a9059cbb87836040518363ffffffff1660e01b815260040161105f929190611bdf565b6020604051808303816000875af115801561107e573d6000803e3d6000fd5b505050506040513d601f19601f820116820180604052508101906110a291906115b2565b6110e1576040517f08c379a00000000000000000000000000000000000000000000000000000000081526004016110d890611988565b60405180910390fd5b8573ffffffffffffffffffffffffffffffffffffffff167fb912946124be003bfee2151b6adc89d72edfa93c14c1bd2224a138959246ee2486600001518360405161112d929190611230565b60405180910390a2505050505050565b6000819050919050565b6111508161113d565b82525050565b600060208201905061116b6000830184611147565b92915050565b600073ffffffffffffffffffffffffffffffffffffffff82169050919050565b600061119c82611171565b9050919050565b6111ac81611191565b82525050565b60006020820190506111c760008301846111a3565b92915050565b600080fd5b600080fd5b6111e081611191565b81146111eb57600080fd5b50565b6000813590506111fd816111d7565b92915050565b600060208284031215611219576112186111cd565b5b6000611227848285016111ee565b91505092915050565b60006040820190506112456000830185611147565b6112526020830184611147565b9392505050565b6112628161113d565b811461126d57600080fd5b50565b60008135905061127f81611259565b92915050565b60006020828403121561129b5761129a6111cd565b5b60006112a984828501611270565b91505092915050565b600080fd5b600080fd5b600080fd5b60008083601f8401126112d7576112d66112b2565b5b8235905067ffffffffffffffff8111156112f4576112f36112b7565b5b6020830191508360018202830111156113105761130f6112bc565b5b9250929050565b6000806000604084860312156113305761132f6111cd565b5b600061133e868287016111ee565b935050602084013567ffffffffffffffff81111561135f5761135e6111d2565b5b61136b868287016112c1565b92509250509250925092565b60008151905061138681611259565b92915050565b6000602082840312156113a2576113a16111cd565b5b60006113b084828501611377565b91505092915050565b600082825260208201905092915050565b7f494e565f5a45524f5f5348415245530000000000000000000000000000000000600082015250565b6000611400600f836113b9565b915061140b826113ca565b602082019050919050565b6000602082019050818103600083015261142f816113f3565b9050919050565b7f494e565f494e53554646494349454e545f534841524553000000000000000000600082015250565b600061146c6017836113b9565b915061147782611436565b602082019050919050565b6000602082019050818103600083015261149b8161145f565b9050919050565b7f494e565f57495448445241575f414c52454144595f5245515545535445440000600082015250565b60006114d8601e836113b9565b91506114e3826114a2565b602082019050919050565b60006020820190508181036000830152611507816114cb565b9050919050565b7f494e565f4147454e545f4f4e4c59000000000000000000000000000000000000600082015250565b6000611544600e836113b9565b915061154f8261150e565b602082019050919050565b6000602082019050818103600083015261157381611537565b9050919050565b60008115159050919050565b61158f8161157a565b811461159a57600080fd5b50565b6000815190506115ac81611586565b92915050565b6000602082840312156115c8576115c76111cd565b5b60006115d68482850161159d565b91505092915050565b7f494e565f4241445f414441505445520000000000000000000000000000000000600082015250565b6000611615600f836113b9565b9150611620826115df565b602082019050919050565b6000602082019050818103600083015261164481611608565b9050919050565b600081905092915050565b82818337600083830152505050565b6000611671838561164b565b935061167e838584611656565b82840190509392505050565b6000611697828486611665565b91508190509392505050565b7f494e565f414441505445525f43414c4c5f4641494c0000000000000000000000600082015250565b60006116d96015836113b9565b91506116e4826116a3565b602082019050919050565b60006020820190508181036000830152611708816116cc565b9050919050565b7f4e487b7100000000000000000000000000000000000000000000000000000000600052603260045260246000fd5b60007fffffffff0000000000000000000000000000000000000000000000000000000082169050919050565b6117738161173e565b82525050565b600060208201905061178e600083018461176a565b92915050565b7f494e565f5a45524f5f4445504f53495400000000000000000000000000000000600082015250565b60006117ca6010836113b9565b91506117d582611794565b602082019050919050565b600060208201905081810360008301526117f9816117bd565b9050919050565b7f4e487b7100000000000000000000000000000000000000000000000000000000600052601160045260246000fd5b600061183a8261113d565b91506118458361113d565b92508282026118538161113d565b9150828204841483151761186a57611869611800565b5b5092915050565b7f4e487b7100000000000000000000000000000000000000000000000000000000600052601260045260246000fd5b60006118ab8261113d565b91506118b68361113d565b9250826118c6576118c5611871565b5b828204905092915050565b60006118dc8261113d565b91506118e78361113d565b92508282019050808211156118ff576118fe611800565b5b92915050565b600060608201905061191a60008301866111a3565b61192760208301856111a3565b6119346040830184611147565b949350505050565b7f494e565f5452414e534645525f4641494c000000000000000000000000000000600082015250565b60006119726011836113b9565b915061197d8261193c565b602082019050919050565b600060208201905081810360008301526119a181611965565b9050919050565b7f494e565f4e4f5f57495448445241575f52455155455354000000000000000000600082015250565b60006119de6017836113b9565b91506119e9826119a8565b602082019050919050565b60006020820190508181036000830152611a0d816119d1565b9050919050565b600080600060608486031215611a2d57611a2c6111cd565b5b6000611a3b86828701611377565b9350506020611a4c86828701611377565b9250506040611a5d8682870161159d565b9150509250925092565b7f494e565f45504f43485f4e4f545f46494e414c00000000000000000000000000600082015250565b6000611a9d6013836113b9565b9150611aa882611a67565b602082019050919050565b60006020820190508181036000830152611acc81611a90565b9050919050565b7f494e565f53484152455f4d49534d415443480000000000000000000000000000600082015250565b6000611b096012836113b9565b9150611b1482611ad3565b602082019050919050565b60006020820190508181036000830152611b3881611afc565b9050919050565b7f494e565f5a45524f5f5749544844524157000000000000000000000000000000600082015250565b6000611b756011836113b9565b9150611b8082611b3f565b602082019050919050565b60006020820190508181036000830152611ba481611b68565b9050919050565b6000611bb68261113d565b9150611bc18361113d565b9250828203905081811115611bd957611bd8611800565b5b92915050565b6000604082019050611bf460008301856111a3565b611c016020830184611147565b939250505056fea2646970667358221220e659a289b013f1e1de996563b08af953055073791433eb37d76635f37969273364736f6c63430008150033",
  "linkReferences": {},
  "deployedLinkReferences": {}
}