{
  "_format": "hh-sol-artifact-1",
  "contractName": "AdapterRegistry",
  "sourceName": "contracts/AdapterRegistry.sol",
  "abi": [
    {
      "inputs": [
        {
          "internalType": "address",
          "name": "_owner",
          "type": "address"
        }
      ],
      "stateMutability": "nonpayable",
      "type": "constructor"
    },
    {
      "anonymous": false,
      "inputs": [
        {
          "indexed": true,
          "internalType": "address",
          "name": "adapter",
          "type": "address"
        }
      ],
      "name": "AdapterAdded",
      "type": "event"
    },
    {
      "anonymous": false,
      "inputs": [
        {
          "indexed": true,
          "internalType": "address",
          "name": "adapter",
          "type": "address"
        }
      ],
      "name": "AdapterRemoved",
      "type": "event"
    },
    {
      "inputs": [
        {
          "internalType": "address",
          "name": "adapter",
          "type": "address"
        }
      ],
      "name": "addAdapter",
      "outputs": [],
      "stateMutability": "nonpayable",
      "type": "function"
    },
    {
      "inputs": [
        {
          "internalType": "address",
          "name": "",
          "type": "address"
        }
      ],
      "name": "isAdapter",
      "outputs": [
        {
          "internalType": "bool",
          "name": "",
          "type": "bool"
        }
      ],
      "stateMutability": "view",
      "type": "function"
    },
    {
      "inputs": [],
      "name": "owner",
      "outputs": [
        {
          "internalType": "address",
          "name": "",
          "type": "address"
        }
      ],
      "stateMutability": "view",
      "type": "function"
    },
    {
      "inputs": [
        {
          "internalType": "address",
          "name": "adapter",
          "type": "address"
        }
      ],
      "name": "removeAdapter",
      "outputs": [],
      "stateMutability": "nonpayable",
      "type": "function"
    }
  ],
  "bytecode": "0x608060405234801561001057600080fd5b506040516109e83803806109e88339818101604052810190610032919061014b565b600073ffffffffffffffffffffffffffffffffffffffff168173ffffffffffffffffffffffffffffffffffffffff16036100a1576040517f08c379a0000000000000000000000000000000000000000000000000000000008152600401610098906101d5565b60405180910390fd5b80600160006101000a81548173ffffffffffffffffffffffffffffffffffffffff021916908373ffffffffffffffffffffffffffffffffffffffff160217905550506101f5565b600080fd5b600073ffffffffffffffffffffffffffffffffffffffff82169050919050565b6000610118826100ed565b9050919050565b6101288161010d565b811461013357600080fd5b50565b6000815190506101458161011f565b92915050565b600060208284031215610161576101606100e8565b5b600061016f84828501610136565b91505092915050565b600082825260208201905092915050565b7f494e565f4f574e45525f5a45524f000000000000000000000000000000000000600082015250565b60006101bf600e83610178565b91506101ca82610189565b602082019050919050565b600060208201905081810360008301526101ee816101b2565b9050919050565b6107e4806102046000396000f3fe608060405234801561001057600080fd5b506004361061004c5760003560e01c8063585cd34b1461005157806360d54d411461006d57806368c18beb146100895780638da5cb5b146100b9575b600080fd5b61006b60048036038101906100669190610560565b6100d7565b005b61008760048036038101906100829190610560565b61028f565b005b6100a3600480360381019061009e9190610560565b6104b7565b6040516100b091906105a8565b60405180910390f35b6100c16104d7565b6040516100ce91906105d2565b60405180910390f35b600160009054906101000a900473ffffffffffffffffffffffffffffffffffffffff1673ffffffffffffffffffffffffffffffffffffffff163373ffffffffffffffffffffffffffffffffffffffff1614610167576040517f08c379a000000000000000000000000000000000000000000000000000000000815260040161015e9061064a565b60405180910390fd5b6000808273ffffffffffffffffffffffffffffffffffffffff1673ffffffffffffffffffffffffffffffffffffffff16815260200190815260200160002060009054906101000a900460ff166101f2576040517f08c379a00000000000000000000000000000000000000000000000000000000081526004016101e9906106b6565b60405180910390fd5b60008060008373ffffffffffffffffffffffffffffffffffffffff1673ffffffffffffffffffffffffffffffffffffffff16815260200190815260200160002060006101000a81548160ff0219169083151502179055508073ffffffffffffffffffffffffffffffffffffffff167fdf980d21d8c7bb34800e668dbe003299093bac8e693614151d3c57f73f98a93d60405160405180910390a250565b600160009054906101000a900473ffffffffffffffffffffffffffffffffffffffff1673ffffffffffffffffffffffffffffffffffffffff163373ffffffffffffffffffffffffffffffffffffffff161461031f576040517f08c379a00000000000000000000000000000000000000000000000000000000081526004016103169061064a565b60405180910390fd5b600073ffffffffffffffffffffffffffffffffffffffff168173ffffffffffffffffffffffffffffffffffffffff160361038e576040517f08c379a000000000000000000000000000000000000000000000000000000000815260040161038590610722565b60405180910390fd5b6000808273ffffffffffffffffffffffffffffffffffffffff1673ffffffffffffffffffffffffffffffffffffffff16815260200190815260200160002060009054906101000a900460ff161561041a576040517f08c379a00000000000000000000000000000000000000000000000000000000081526004016104119061078e565b60405180910390fd5b60016000808373ffffffffffffffffffffffffffffffffffffffff1673ffffffffffffffffffffffffffffffffffffffff16815260200190815260200160002060006101000a81548160ff0219169083151502179055508073ffffffffffffffffffffffffffffffffffffffff167fcf9c2c7f9adbb156bd76affb04df84595f8f5e69cab2e61221b05b05a902fa2660405160405180910390a250565b60006020528060005260406000206000915054906101000a900460ff1681565b600160009054906101000a900473ffffffffffffffffffffffffffffffffffffffff1681565b600080fd5b600073ffffffffffffffffffffffffffffffffffffffff82169050919050565b600061052d82610502565b9050919050565b61053d81610522565b811461054857600080fd5b50565b60008135905061055a81610534565b92915050565b600060208284031215610576576105756104fd565b5b60006105848482850161054b565b91505092915050565b60008115159050919050565b6105a28161058d565b82525050565b60006020820190506105bd6000830184610599565b92915050565b6105cc81610522565b82525050565b60006020820190506105e760008301846105c3565b92915050565b600082825260208201905092915050565b7f494e565f4f574e45525f4f4e4c59000000000000000000000000000000000000600082015250565b6000610634600e836105ed565b915061063f826105fe565b602082019050919050565b6000602082019050818103600083015261066381610627565b9050919050565b7f494e565f414441505445525f4e4f545f464f554e440000000000000000000000600082015250565b60006106a06015836105ed565b91506106ab8261066a565b602082019050919050565b600060208201905081810360008301526106cf81610693565b9050919050565b7f494e565f414441505445525f5a45524f00000000000000000000000000000000600082015250565b600061070c6010836105ed565b9150610717826106d6565b602082019050919050565b6000602082019050818103600083015261073b816106ff565b9050919050565b7f494e565f414441505445525f4558495354530000000000000000000000000000600082015250565b60006107786012836105ed565b915061078382610742565b602082019050919050565b600060208201905081810360008301526107a78161076b565b905091905056fea26469706673582212201b9f0091b679ffe2d3b8c866f2e0048aaea15bee01ee900a41249a9dfc12c80164736f6c63430008150033",
  "linkReferences": {},
  "deployedLinkReferences": {}
}