{
  "_format": "hh-sol-artifact-1",
  "contractName": "EpochManager",
  "sourceName": "contracts/EpochManager.sol",
  "abi": [
    {
      "inputs": [
        {
          "internalType": "address",
          "name": "_vault",
          "type": "address"
        }
      ],
      "stateMutability": "nonpayable",
      "type": "constructor"
    },
    {
      "anonymous": false,
      "inputs": [
        {
          "indexed": true,
          "internalType": "uint256",
          "name": "epoch",
          "type": "uint256"
        },
        {
          "indexed": false,
          "internalType": "uint256",
          "name": "endBalance",
          "type": "uint256"
        }
      ],
      "name": "EpochFinalized",
      "type": "event"
    },
    {
      "anonymous": false,
      "inputs": [
        {
          "indexed": true,
          "internalType": "uint256",
          "name": "epoch",
          "type": "uint256"
        },
        {
          "indexed": false,
          "internalType": "uint256",
          "name": "startBalance",
          "type": "uint256"
        }
      ],
      "name": "EpochStarted",
      "type": "event"
    },
    {
      "inputs": [],
      "name": "currentEpoch",
      "outputs": [
        {
          "internalType": "uint256",
          "name": "",
          "type": "uint256"
        }
      ],
      "stateMutability": "view",
      "type": "function"
    },
    {
      "inputs": [
        {
          "internalType": "uint256",
          "name": "",
          "type": "uint256"
        }
      ],
      "name": "epochs",
      "outputs": [
        {
          "internalType": "uint256",
          "name": "startBalance",
          "type": "uint256"
        },
        {
          "internalType": "uint256",
          "name": "endBalance",
          "type": "uint256"
        },
        {
          "internalType": "bool",
          "name": "finalized",
          "type": "bool"
        }
      ],
      "stateMutability": "view",
      "type": "function"
    },
    {
      "inputs": [],
      "name": "finalizeEpoch",
      "outputs": [],
      "stateMutability": "nonpayable",
      "type": "function"
    },
    {
      "inputs": [],
      "name": "startEpoch",
      "outputs": [],
      "stateMutability": "nonpayable",
      "type": "function"
    },
    {
      "inputs": [],
      "name": "vault",
      "outputs": [
        {
          "internalType": "address",
          "name": "",
          "type": "address"
        }
      ],
      "stateMutability": "view",
      "type": "function"
    }
  ],
  "bytecode": "0x608060405234801561001057600080fd5b506040516109db3803806109db83398181016040528101906100329190610152565b600073ffffffffffffffffffffffffffffffffffffffff168173ffffffffffffffffffffffffffffffffffffffff16036100a1576040517f08c379a0000000000000000000000000000000000000000000000000000000008152600401610098906101dc565b60405180910390fd5b80600160006101000a81548173ffffffffffffffffffffffffffffffffffffffff021916908373ffffffffffffffffffffffffffffffffffffffff16021790555060008081905550506101fc565b600080fd5b600073ffffffffffffffffffffffffffffffffffffffff82169050919050565b600061011f826100f4565b9050919050565b61012f81610114565b811461013a57600080fd5b50565b60008151905061014c81610126565b92915050565b600060208284031215610168576101676100ef565b5b60006101768482850161013d565b91505092915050565b600082825260208201905092915050565b7f494e565f5641554c545f5a45524f000000000000000000000000000000000000600082015250565b60006101c6600e8361017f565b91506101d182610190565b602082019050919050565b600060208201905081810360008301526101f5816101b9565b9050919050565b6107d08061020b6000396000f3fe608060405234801561001057600080fd5b50600436106100575760003560e01c8063766718081461005c57806382ae9ef71461007a578063a2c8b17714610084578063c6b61e4c1461008e578063fbfa77cf146100c0575b600080fd5b6100646100de565b6040516100719190610479565b60405180910390f35b6100826100e4565b005b61008c6102a7565b005b6100a860048036038101906100a391906104c5565b610403565b6040516100b79392919061050d565b60405180910390f35b6100c861043a565b6040516100d59190610585565b60405180910390f35b60005481565b6000600260008054815260200190815260200160002090506000816000015403610143576040517f08c379a000000000000000000000000000000000000000000000000000000000815260040161013a906105fd565b60405180910390fd5b8060020160009054906101000a900460ff1615610195576040517f08c379a000000000000000000000000000000000000000000000000000000000815260040161018c90610669565b60405180910390fd5b6000600160009054906101000a900473ffffffffffffffffffffffffffffffffffffffff1673ffffffffffffffffffffffffffffffffffffffff166301e1d1146040518163ffffffff1660e01b8152600401602060405180830381865afa158015610204573d6000803e3d6000fd5b505050506040513d601f19601f82011682018060405250810190610228919061069e565b905080826001018190555060018260020160006101000a81548160ff0219169083151502179055506000547f6debf9c0b8bd7ecda40db89a2641f61251d80a576b5c5e5f06de7f1c2a65850a826040516102829190610479565b60405180910390a2600160008082825461029c91906106fa565b925050819055505050565b600060026000805481526020019081526020016000209050600081600001541480156102e85750600015158160020160009054906101000a900460ff161515145b610327576040517f08c379a000000000000000000000000000000000000000000000000000000000815260040161031e9061077a565b60405180910390fd5b6000600160009054906101000a900473ffffffffffffffffffffffffffffffffffffffff1673ffffffffffffffffffffffffffffffffffffffff166301e1d1146040518163ffffffff1660e01b8152600401602060405180830381865afa158015610396573d6000803e3d6000fd5b505050506040513d601f19601f820116820180604052508101906103ba919061069e565b90508082600001819055506000547f41787f1277821474072e18df95f0bd9ed9f117003aa97732ebbd737225b32b02826040516103f79190610479565b60405180910390a25050565b60026020528060005260406000206000915090508060000154908060010154908060020160009054906101000a900460ff16905083565b600160009054906101000a900473ffffffffffffffffffffffffffffffffffffffff1681565b6000819050919050565b61047381610460565b82525050565b600060208201905061048e600083018461046a565b92915050565b600080fd5b6104a281610460565b81146104ad57600080fd5b50565b6000813590506104bf81610499565b92915050565b6000602082840312156104db576104da610494565b5b60006104e9848285016104b0565b91505092915050565b60008115159050919050565b610507816104f2565b82525050565b6000606082019050610522600083018661046a565b61052f602083018561046a565b61053c60408301846104fe565b949350505050565b600073ffffffffffffffffffffffffffffffffffffffff82169050919050565b600061056f82610544565b9050919050565b61057f81610564565b82525050565b600060208201905061059a6000830184610576565b92915050565b600082825260208201905092915050565b7f494e565f45504f43485f4e4f545f535441525445440000000000000000000000600082015250565b60006105e76015836105a0565b91506105f2826105b1565b602082019050919050565b60006020820190508181036000830152610616816105da565b9050919050565b7f494e565f45504f43485f414c52454144595f46494e414c000000000000000000600082015250565b60006106536017836105a0565b915061065e8261061d565b602082019050919050565b6000602082019050818103600083015261068281610646565b9050919050565b60008151905061069881610499565b92915050565b6000602082840312156106b4576106b3610494565b5b60006106c284828501610689565b91505092915050565b7f4e487b7100000000000000000000000000000000000000000000000000000000600052601160045260246000fd5b600061070582610460565b915061071083610460565b9250828201905080821115610728576107276106cb565b5b92915050565b7f494e565f45504f43485f414c52454144595f5354415254454400000000000000600082015250565b60006107646019836105a0565b915061076f8261072e565b602082019050919050565b6000602082019050818103600083015261079381610757565b905091905056fea2646970667358221220c0422d368c42e523ebd90e92da998cab2c3e594f1517781caf866c77f9194e2f64736f6c63430008150033",
  "linkReferences": {},
  "deployedLinkReferences": {}
}