{
  "_format": "hh-sol-artifact-1",
  "contractName": "DisputeModule",
  "sourceName": "contracts/DisputeModule.sol",
  "abi": [
    {
      "inputs": [
        {
          "internalType": "address",
          "name": "_registry",
          "type": "address"
        },
        {
          "internalType": "address",
          "name": "_disputeAuthority",
          "type": "address"
        }
      ],
      "stateMutability": "nonpayable",
      "type": "constructor"
    },
    {
      "anonymous": false,
      "inputs": [
        {
          "indexed": true,
          "internalType": "uint256",
          "name": "epoch",
          "type": "uint256"
        }
      ],
      "name": "EpochFrozen",
      "type": "event"
    },
    {
      "inputs": [
        {
          "internalType": "uint256",
          "name": "epoch",
          "type": "uint256"
        },
        {
          "internalType": "bytes",
          "name": "",
          "type": "bytes"
        }
      ],
      "name": "dispute",
      "outputs": [],
      "stateMutability": "nonpayable",
      "type": "function"
    },
    {
      "inputs": [],
      "name": "disputeAuthority",
      "outputs": [
        {
          "internalType": "address",
          "name": "",
          "type": "address"
        }
      ],
      "stateMutability": "view",
      "type": "function"
    },
    {
      "inputs": [
        {
          "internalType": "uint256",
          "name": "",
          "type": "uint256"
        }
      ],
      "name": "frozenEpochs",
      "outputs": [
        {
          "internalType": "bool",
          "name": "",
          "type": "bool"
        }
      ],
      "stateMutability": "view",
      "type": "function"
    },
    {
      "inputs": [],
      "name": "registry",
      "outputs": [
        {
          "internalType": "contract IReceiptRegistry",
          "name": "",
          "type": "address"
        }
      ],
      "stateMutability": "view",
      "type": "function"
    }
  ],
  "bytecode": "0x60806040523480156200001157600080fd5b5060405162000dca38038062000dca83398181016040528101906200003791906200020e565b600073ffffffffffffffffffffffffffffffffffffffff168273ffffffffffffffffffffffffffffffffffffffff1603620000a9576040517f08c379a0000000000000000000000000000000000000000000000000000000008152600401620000a090620002b6565b60405180910390fd5b600073ffffffffffffffffffffffffffffffffffffffff168173ffffffffffffffffffffffffffffffffffffffff16036200011b576040517f08c379a0000000000000000000000000000000000000000000000000000000008152600401620001129062000328565b60405180910390fd5b816000806101000a81548173ffffffffffffffffffffffffffffffffffffffff021916908373ffffffffffffffffffffffffffffffffffffffff16021790555080600160006101000a81548173ffffffffffffffffffffffffffffffffffffffff021916908373ffffffffffffffffffffffffffffffffffffffff16021790555050506200034a565b600080fd5b600073ffffffffffffffffffffffffffffffffffffffff82169050919050565b6000620001d682620001a9565b9050919050565b620001e881620001c9565b8114620001f457600080fd5b50565b6000815190506200020881620001dd565b92915050565b60008060408385031215620002285762000227620001a4565b5b60006200023885828601620001f7565b92505060206200024b85828601620001f7565b9150509250929050565b600082825260208201905092915050565b7f494e565f5245475f5a45524f0000000000000000000000000000000000000000600082015250565b60006200029e600c8362000255565b9150620002ab8262000266565b602082019050919050565b60006020820190508181036000830152620002d1816200028f565b9050919050565b7f494e565f415554485f5a45524f00000000000000000000000000000000000000600082015250565b600062000310600d8362000255565b91506200031d82620002d8565b602082019050919050565b60006020820190508181036000830152620003438162000301565b9050919050565b610a70806200035a6000396000f3fe608060405234801561001057600080fd5b506004361061004c5760003560e01c80635b26bb00146100515780637b1039991461006f578063822297a21461008d578063f82d578a146100bd575b600080fd5b6100596100d9565b6040516100669190610472565b60405180910390f35b6100776100ff565b60405161008491906104ec565b60405180910390f35b6100a760048036038101906100a29190610551565b610123565b6040516100b49190610599565b60405180910390f35b6100d760048036038101906100d29190610619565b610143565b005b600160009054906101000a900473ffffffffffffffffffffffffffffffffffffffff1681565b60008054906101000a900473ffffffffffffffffffffffffffffffffffffffff1681565b60026020528060005260406000206000915054906101000a900460ff1681565b600160009054906101000a900473ffffffffffffffffffffffffffffffffffffffff1673ffffffffffffffffffffffffffffffffffffffff163373ffffffffffffffffffffffffffffffffffffffff16146101d3576040517f08c379a00000000000000000000000000000000000000000000000000000000081526004016101ca906106d6565b60405180910390fd5b6002600084815260200190815260200160002060009054906101000a900460ff1615610234576040517f08c379a000000000000000000000000000000000000000000000000000000000815260040161022b90610742565b60405180910390fd5b60008060009054906101000a900473ffffffffffffffffffffffffffffffffffffffff1673ffffffffffffffffffffffffffffffffffffffff16630f7ee1ec856040518263ffffffff1660e01b81526004016102909190610771565b61012060405180830381865afa1580156102ae573d6000803e3d6000fd5b505050506040513d601f19601f820116820180604052508101906102d291906109a0565b9050600073ffffffffffffffffffffffffffffffffffffffff168160e0015173ffffffffffffffffffffffffffffffffffffffff1603610347576040517f08c379a000000000000000000000000000000000000000000000000000000000815260040161033e90610a1a565b60405180910390fd5b60008054906101000a900473ffffffffffffffffffffffffffffffffffffffff1673ffffffffffffffffffffffffffffffffffffffff1663d7a78db8856040518263ffffffff1660e01b81526004016103a09190610771565b600060405180830381600087803b1580156103ba57600080fd5b505af11580156103ce573d6000803e3d6000fd5b5050505060016002600086815260200190815260200160002060006101000a81548160ff021916908315150217905550837f165a9fad7648c4a95c2cb3bc37d06807f556a80eec9930afcc939b684c5c5d4160405160405180910390a250505050565b600073ffffffffffffffffffffffffffffffffffffffff82169050919050565b600061045c82610431565b9050919050565b61046c81610451565b82525050565b60006020820190506104876000830184610463565b92915050565b6000819050919050565b60006104b26104ad6104a884610431565b61048d565b610431565b9050919050565b60006104c482610497565b9050919050565b60006104d6826104b9565b9050919050565b6104e6816104cb565b82525050565b600060208201905061050160008301846104dd565b92915050565b6000604051905090565b600080fd5b600080fd5b6000819050919050565b61052e8161051b565b811461053957600080fd5b50565b60008135905061054b81610525565b92915050565b60006020828403121561056757610566610511565b5b60006105758482850161053c565b91505092915050565b60008115159050919050565b6105938161057e565b82525050565b60006020820190506105ae600083018461058a565b92915050565b600080fd5b600080fd5b600080fd5b60008083601f8401126105d9576105d86105b4565b5b8235905067ffffffffffffffff8111156105f6576105f56105b9565b5b602083019150836001820283011115610612576106116105be565b5b9250929050565b60008060006040848603121561063257610631610511565b5b60006106408682870161053c565b935050602084013567ffffffffffffffff81111561066157610660610516565b5b61066d868287016105c3565b92509250509250925092565b600082825260208201905092915050565b7f494e565f415554485f4f4e4c5900000000000000000000000000000000000000600082015250565b60006106c0600d83610679565b91506106cb8261068a565b602082019050919050565b600060208201905081810360008301526106ef816106b3565b9050919050565b7f494e565f45504f43485f414c52454144595f46524f5a454e0000000000000000600082015250565b600061072c601883610679565b9150610737826106f6565b602082019050919050565b6000602082019050818103600083015261075b8161071f565b9050919050565b61076b8161051b565b82525050565b60006020820190506107866000830184610762565b92915050565b600080fd5b6000601f19601f8301169050919050565b7f4e487b7100000000000000000000000000000000000000000000000000000000600052604160045260246000fd5b6107da82610791565b810181811067ffffffffffffffff821117156107f9576107f86107a2565b5b80604052505050565b600061080c610507565b905061081882826107d1565b919050565b60008151905061082c81610525565b92915050565b6000819050919050565b61084581610832565b811461085057600080fd5b50565b6000815190506108628161083c565b92915050565b61087181610451565b811461087c57600080fd5b50565b60008151905061088e81610868565b92915050565b61089d8161057e565b81146108a857600080fd5b50565b6000815190506108ba81610894565b92915050565b600061012082840312156108d7576108d661078c565b5b6108e2610120610802565b905060006108f28482850161081d565b600083015250602061090684828501610853565b602083015250604061091a84828501610853565b604083015250606061092e8482850161081d565b60608301525060806109428482850161081d565b60808301525060a06109568482850161081d565b60a08301525060c061096a8482850161081d565b60c08301525060e061097e8482850161087f565b60e083015250610100610993848285016108ab565b6101008301525092915050565b600061012082840312156109b7576109b6610511565b5b60006109c5848285016108c0565b91505092915050565b7f494e565f4e4f5f52454345495054000000000000000000000000000000000000600082015250565b6000610a04600e83610679565b9150610a0f826109ce565b602082019050919050565b60006020820190508181036000830152610a33816109f7565b905091905056fea264697066735822122053b295cd7b1229bacc25f6cda688fb881e857ec57b451264b20e3f40ea4f1e0e64736f6c63430008150033",
  "linkReferences": {},
  "deployedLinkReferences": {}
}