{
  "_format": "hh-sol-artifact-1",
  "contractName": "ReceiptRegistry",
  "sourceName": "contracts/ReceiptRegistry.sol",
  "abi": [
    {
      "inputs": [
        {
          "internalType": "address",
          "name": "_executorSigner",
          "type": "address"
        },
        {
          "internalType": "address",
          "name": "_epochManager",
          "type": "address"
        }
      ],
      "stateMutability": "nonpayable",
      "type": "constructor"
    },
    {
      "anonymous": false,
      "inputs": [
        {
          "indexed": true,
          "internalType": "uint256",
          "name": "epoch",
          "type": "uint256"
        }
      ],
      "name": "ReceiptFrozen",
      "type": "event"
    },
    {
      "anonymous": false,
      "inputs": [
        {
          "indexed": true,
          "internalType": "uint256",
          "name": "epoch",
          "type": "uint256"
        },
        {
          "indexed": true,
          "internalType": "address",
          "name": "executor",
          "type": "address"
        }
      ],
      "name": "ReceiptSubmitted",
      "type": "event"
    },
    {
      "inputs": [],
      "name": "epochManager",
      "outputs": [
        {
          "internalType": "address",
          "name": "",
          "type": "address"
        }
      ],
      "stateMutability": "view",
      "type": "function"
    },
    {
      "inputs": [],
      "name": "executorSigner",
      "outputs": [
        {
          "internalType": "address",
          "name": "",
          "type": "address"
        }
      ],
      "stateMutability": "view",
      "type": "function"
    },
    {
      "inputs": [
        {
          "internalType": "uint256",
          "name": "epoch",
          "type": "uint256"
        }
      ],
      "name": "freeze",
      "outputs": [],
      "stateMutability": "nonpayable",
      "type": "function"
    },
    {
      "inputs": [
        {
          "internalType": "uint256",
          "name": "",
          "type": "uint256"
        }
      ],
      "name": "receipts",
      "outputs": [
        {
          "internalType": "uint256",
          "name": "epoch",
          "type": "uint256"
        },
        {
          "internalType": "bytes32",
          "name": "strategyHash",
          "type": "bytes32"
        },
        {
          "internalType": "bytes32",
          "name": "actionHash",
          "type": "bytes32"
        },
        {
          "internalType": "uint256",
          "name": "balanceBefore",
          "type": "uint256"
        },
        {
          "internalType": "uint256",
          "name": "balanceAfter",
          "type": "uint256"
        },
        {
          "internalType": "uint256",
          "name": "gasUsed",
          "type": "uint256"
        },
        {
          "internalType": "uint256",
          "name": "timestamp",
          "type": "uint256"
        },
        {
          "internalType": "address",
          "name": "executor",
          "type": "address"
        },
        {
          "internalType": "bool",
          "name": "frozen",
          "type": "bool"
        }
      ],
      "stateMutability": "view",
      "type": "function"
    },
    {
      "inputs": [
        {
          "internalType": "uint256",
          "name": "epoch",
          "type": "uint256"
        },
        {
          "components": [
            {
              "internalType": "uint256",
              "name": "epoch",
              "type": "uint256"
            },
            {
              "internalType": "bytes32",
              "name": "strategyHash",
              "type": "bytes32"
            },
            {
              "internalType": "bytes32",
              "name": "actionHash",
              "type": "bytes32"
            },
            {
              "internalType": "uint256",
              "name": "balanceBefore",
              "type": "uint256"
            },
            {
              "internalType": "uint256",
              "name": "balanceAfter",
              "type": "uint256"
            },
            {
              "internalType": "uint256",
              "name": "gasUsed",
              "type": "uint256"
            },
            {
              "internalType": "uint256",
              "name": "timestamp",
              "type": "uint256"
            },
            {
              "internalType": "address",
              "name": "executor",
              "type": "address"
            },
            {
              "internalType": "bool",
              "name": "frozen",
              "type": "bool"
            }
          ],
          "internalType": "struct ReceiptRegistry.Receipt",
          "name": "r",
          "type": "tuple"
        },
        {
          "internalType": "bytes",
          "name": "signature",
          "type": "bytes"
        }
      ],
      "name": "submitReceipt",
      "outputs": [],
      "stateMutability": "nonpayable",
      "type": "function"
    }
  ],
  "bytecode": "0x60806040523480156200001157600080fd5b506040516200169b3803806200169b83398181016040528101906200003791906200020f565b600073ffffffffffffffffffffffffffffffffffffffff168273ffffffffffffffffffffffffffffffffffffffff1603620000a9576040517f08c379a0000000000000000000000000000000000000000000000000000000008152600401620000a090620002b7565b60405180910390fd5b600073ffffffffffffffffffffffffffffffffffffffff168173ffffffffffffffffffffffffffffffffffffffff16036200011b576040517f08c379a0000000000000000000000000000000000000000000000000000000008152600401620001129062000329565b60405180910390fd5b81600160006101000a81548173ffffffffffffffffffffffffffffffffffffffff021916908373ffffffffffffffffffffffffffffffffffffffff16021790555080600260006101000a81548173ffffffffffffffffffffffffffffffffffffffff021916908373ffffffffffffffffffffffffffffffffffffffff16021790555050506200034b565b600080fd5b600073ffffffffffffffffffffffffffffffffffffffff82169050919050565b6000620001d782620001aa565b9050919050565b620001e981620001ca565b8114620001f557600080fd5b50565b6000815190506200020981620001de565b92915050565b60008060408385031215620002295762000228620001a5565b5b60006200023985828601620001f8565b92505060206200024c85828601620001f8565b9150509250929050565b600082825260208201905092915050565b7f494e565f5349474e45525f5a45524f0000000000000000000000000000000000600082015250565b60006200029f600f8362000256565b9150620002ac8262000267565b602082019050919050565b60006020820190508181036000830152620002d28162000290565b9050919050565b7f494e565f45504f43485f5a45524f000000000000000000000000000000000000600082015250565b600062000311600e8362000256565b91506200031e82620002d9565b602082019050919050565b60006020820190508181036000830152620003448162000302565b9050919050565b611340806200035b6000396000f3fe608060405234801561001057600080fd5b50600436106100575760003560e01c80630f7ee1ec1461005c57806347063cf214610094578063d7a78db8146100b0578063e2d2bfe3146100cc578063f6de30b6146100ea575b600080fd5b610076600480360381019061007191906107aa565b610108565b60405161008b9998979695949392919061085b565b60405180910390f35b6100ae60048036038101906100a99190610972565b610183565b005b6100ca60048036038101906100c591906107aa565b610413565b005b6100d461055c565b6040516100e191906109e8565b60405180910390f35b6100f2610582565b6040516100ff91906109e8565b60405180910390f35b60006020528060005260406000206000915090508060000154908060010154908060020154908060030154908060040154908060050154908060060154908060070160009054906101000a900473ffffffffffffffffffffffffffffffffffffffff16908060070160149054906101000a900460ff16905089565b60008060008681526020019081526020016000209050600073ffffffffffffffffffffffffffffffffffffffff168160070160009054906101000a900473ffffffffffffffffffffffffffffffffffffffff1673ffffffffffffffffffffffffffffffffffffffff161461022c576040517f08c379a000000000000000000000000000000000000000000000000000000000815260040161022390610a60565b60405180910390fd5b6000600260009054906101000a900473ffffffffffffffffffffffffffffffffffffffff1673ffffffffffffffffffffffffffffffffffffffff1663766718086040518163ffffffff1660e01b8152600401602060405180830381865afa15801561029b573d6000803e3d6000fd5b505050506040513d601f19601f820116820180604052508101906102bf9190610a95565b9050808610610303576040517f08c379a00000000000000000000000000000000000000000000000000000000081526004016102fa90610b0e565b60405180910390fd5b85856000013514610349576040517f08c379a000000000000000000000000000000000000000000000000000000000815260040161034090610b7a565b60405180910390fd5b6103548585856105a8565b610393576040517f08c379a000000000000000000000000000000000000000000000000000000000815260040161038a90610be6565b60405180910390fd5b8460008088815260200190815260200160002081816103b29190610ff9565b9050508460e00160208101906103c8919061101c565b73ffffffffffffffffffffffffffffffffffffffff16867f785ecd0e2918a0a2c98f68ec3c16ade88dc0d4683d68ee5a1d5ab12cc87f371b60405160405180910390a3505050505050565b60008060008381526020019081526020016000209050600073ffffffffffffffffffffffffffffffffffffffff168160070160009054906101000a900473ffffffffffffffffffffffffffffffffffffffff1673ffffffffffffffffffffffffffffffffffffffff16036104bc576040517f08c379a00000000000000000000000000000000000000000000000000000000081526004016104b390611095565b60405180910390fd5b8060070160149054906101000a900460ff161561050e576040517f08c379a000000000000000000000000000000000000000000000000000000000815260040161050590611101565b60405180910390fd5b60018160070160146101000a81548160ff021916908315150217905550817f130ba37e756fa7beee6b503572d5ecf6532675cc1ae824c876ff5b0d11e39b2160405160405180910390a25050565b600260009054906101000a900473ffffffffffffffffffffffffffffffffffffffff1681565b600160009054906101000a900473ffffffffffffffffffffffffffffffffffffffff1681565b600080846000013585602001358660400135876060013588608001358960a001358a60c001358b60e00160208101906105e1919061101c565b6040516020016105f8989796959493929190611121565b6040516020818303038152906040528051906020012090506000816040516020016106239190611217565b604051602081830303815290604052805190602001209050600080600061064a8888610703565b9250925092506000600185838686604051600081526020016040526040516106759493929190611259565b6020604051602081039080840390855afa158015610697573d6000803e3d6000fd5b505050602060405103519050600160009054906101000a900473ffffffffffffffffffffffffffffffffffffffff1673ffffffffffffffffffffffffffffffffffffffff168173ffffffffffffffffffffffffffffffffffffffff161496505050505050509392505050565b60008060006041858590501461074e576040517f08c379a0000000000000000000000000000000000000000000000000000000008152600401610745906112ea565b60405180910390fd5b8435925060208501359150604085013560001a90509250925092565b600080fd5b600080fd5b6000819050919050565b61078781610774565b811461079257600080fd5b50565b6000813590506107a48161077e565b92915050565b6000602082840312156107c0576107bf61076a565b5b60006107ce84828501610795565b91505092915050565b6107e081610774565b82525050565b6000819050919050565b6107f9816107e6565b82525050565b600073ffffffffffffffffffffffffffffffffffffffff82169050919050565b600061082a826107ff565b9050919050565b61083a8161081f565b82525050565b60008115159050919050565b61085581610840565b82525050565b600061012082019050610871600083018c6107d7565b61087e602083018b6107f0565b61088b604083018a6107f0565b61089860608301896107d7565b6108a560808301886107d7565b6108b260a08301876107d7565b6108bf60c08301866107d7565b6108cc60e0830185610831565b6108da61010083018461084c565b9a9950505050505050505050565b600080fd5b60006101208284031215610904576109036108e8565b5b81905092915050565b600080fd5b600080fd5b600080fd5b60008083601f8401126109325761093161090d565b5b8235905067ffffffffffffffff81111561094f5761094e610912565b5b60208301915083600182028301111561096b5761096a610917565b5b9250929050565b600080600080610160858703121561098d5761098c61076a565b5b600061099b87828801610795565b94505060206109ac878288016108ed565b93505061014085013567ffffffffffffffff8111156109ce576109cd61076f565b5b6109da8782880161091c565b925092505092959194509250565b60006020820190506109fd6000830184610831565b92915050565b600082825260208201905092915050565b7f494e565f524543454950545f4558495354530000000000000000000000000000600082015250565b6000610a4a601283610a03565b9150610a5582610a14565b602082019050919050565b60006020820190508181036000830152610a7981610a3d565b9050919050565b600081519050610a8f8161077e565b92915050565b600060208284031215610aab57610aaa61076a565b5b6000610ab984828501610a80565b91505092915050565b7f494e565f45504f43485f4e4f545f46494e414c00000000000000000000000000600082015250565b6000610af8601383610a03565b9150610b0382610ac2565b602082019050919050565b60006020820190508181036000830152610b2781610aeb565b9050919050565b7f494e565f45504f43485f4d49534d415443480000000000000000000000000000600082015250565b6000610b64601283610a03565b9150610b6f82610b2e565b602082019050919050565b60006020820190508181036000830152610b9381610b57565b9050919050565b7f494e565f4241445f5349474e4154555245000000000000000000000000000000600082015250565b6000610bd0601183610a03565b9150610bdb82610b9a565b602082019050919050565b60006020820190508181036000830152610bff81610bc3565b9050919050565b60008135610c138161077e565b80915050919050565b60008160001b9050919050565b60007fffffffffffffffffffffffffffffffffffffffffffffffffffffffffffffffff610c5584610c1c565b9350801983169250808416831791505092915050565b6000819050919050565b6000610c90610c8b610c8684610774565b610c6b565b610774565b9050919050565b6000819050919050565b610caa82610c75565b610cbd610cb682610c97565b8354610c29565b8255505050565b610ccd816107e6565b8114610cd857600080fd5b50565b60008135610ce881610cc4565b80915050919050565b6000610cfc826107e6565b9050919050565b60008160001c9050919050565b6000610d1b82610d03565b9050919050565b610d2b82610cf1565b610d3e610d3782610d10565b8354610c29565b8255505050565b610d4e8161081f565b8114610d5957600080fd5b50565b60008135610d6981610d45565b80915050919050565b600073ffffffffffffffffffffffffffffffffffffffff610d9284610c1c565b9350801983169250808416831791505092915050565b6000610dc3610dbe610db9846107ff565b610c6b565b6107ff565b9050919050565b6000610dd582610da8565b9050919050565b6000610de782610dca565b9050919050565b6000819050919050565b610e0182610ddc565b610e14610e0d82610dee565b8354610d72565b8255505050565b610e2481610840565b8114610e2f57600080fd5b50565b60008135610e3f81610e1b565b80915050919050565b60008160a01b9050919050565b600074ff0000000000000000000000000000000000000000610e7684610e48565b9350801983169250808416831791505092915050565b6000610e9782610840565b9050919050565b6000819050919050565b610eb182610e8c565b610ec4610ebd82610e9e565b8354610e55565b8255505050565b600081016000830180610edd81610c06565b9050610ee98184610ca1565b505050600181016020830180610efe81610cdb565b9050610f0a8184610d22565b505050600281016040830180610f1f81610cdb565b9050610f2b8184610d22565b505050600381016060830180610f4081610c06565b9050610f4c8184610ca1565b505050600481016080830180610f6181610c06565b9050610f6d8184610ca1565b5050506005810160a0830180610f8281610c06565b9050610f8e8184610ca1565b5050506006810160c0830180610fa381610c06565b9050610faf8184610ca1565b5050506007810160e0830180610fc481610d5c565b9050610fd08184610df8565b50505060078101610100830180610fe681610e32565b9050610ff28184610ea8565b5050505050565b6110038282610ecb565b5050565b60008135905061101681610d45565b92915050565b6000602082840312156110325761103161076a565b5b600061104084828501611007565b91505092915050565b7f494e565f4e4f5f52454345495054000000000000000000000000000000000000600082015250565b600061107f600e83610a03565b915061108a82611049565b602082019050919050565b600060208201905081810360008301526110ae81611072565b9050919050565b7f494e565f414c52454144595f46524f5a454e0000000000000000000000000000600082015250565b60006110eb601283610a03565b91506110f6826110b5565b602082019050919050565b6000602082019050818103600083015261111a816110de565b9050919050565b600061010082019050611137600083018b6107d7565b611144602083018a6107f0565b61115160408301896107f0565b61115e60608301886107d7565b61116b60808301876107d7565b61117860a08301866107d7565b61118560c08301856107d7565b61119260e0830184610831565b9998505050505050505050565b600081905092915050565b7f19457468657265756d205369676e6564204d6573736167653a0a333200000000600082015250565b60006111e0601c8361119f565b91506111eb826111aa565b601c82019050919050565b6000819050919050565b61121161120c826107e6565b6111f6565b82525050565b6000611222826111d3565b915061122e8284611200565b60208201915081905092915050565b600060ff82169050919050565b6112538161123d565b82525050565b600060808201905061126e60008301876107f0565b61127b602083018661124a565b61128860408301856107f0565b61129560608301846107f0565b95945050505050565b7f494e565f5349475f4c454e475448000000000000000000000000000000000000600082015250565b60006112d4600e83610a03565b91506112df8261129e565b602082019050919050565b60006020820190508181036000830152611303816112c7565b905091905056fea2646970667358221220ea54ef7bb938b3b92ff902df2d4d601dfc4084d17ef0263cfc7c97d51ca4a5ed64736f6c63430008150033",
  "linkReferences": {},
  "deployedLinkReferences": {}
}