{
  "_format": "hh-sol-artifact-1",
  "contractName": "FeeSplitter",
  "sourceName": "contracts/FeeSplitter.sol",
  "abi": [
    {
      "inputs": [
        {
          "internalType": "address",
          "name": "_vault",
          "type": "address"
        },
        {
          "internalType": "address",
          "name": "_perfToken",
          "type": "address"
        },
        {
          "internalType": "address",
          "name": "_agent",
          "type": "address"
        },
        {
          "internalType": "address",
          "name": "_insurance",
          "type": "address"
        },
        {
          "internalType": "uint256",
          "name": "_perfCut",
          "type": "uint256"
        },
        {
          "internalType": "uint256",
          "name": "_agentCut",
          "type": "uint256"
        },
        {
          "internalType": "uint256",
          "name": "_insuranceCut",
          "type": "uint256"
        }
      ],
      "stateMutability": "nonpayable",
      "type": "constructor"
    },
    {
      "anonymous": false,
      "inputs": [
        {
          "indexed": false,
          "internalType": "uint256",
          "name": "profit",
          "type": "uint256"
        },
        {
          "indexed": false,
          "internalType": "uint256",
          "name": "perfAmount",
          "type": "uint256"
        },
        {
          "indexed": false,
          "internalType": "uint256",
          "name": "agentAmount",
          "type": "uint256"
        },
        {
          "indexed": false,
          "internalType": "uint256",
          "name": "insuranceAmount",
          "type": "uint256"
        }
      ],
      "name": "FeesDistributed",
      "type": "event"
    },
    {
      "inputs": [],
      "name": "agent",
      "outputs": [
        {
          "internalType": "address",
          "name": "",
          "type": "address"
        }
      ],
      "stateMutability": "view",
      "type": "function"
    },
    {
      "inputs": [],
      "name": "agentCut",
      "outputs": [
        {
          "internalType": "uint256",
          "name": "",
          "type": "uint256"
        }
      ],
      "stateMutability": "view",
      "type": "function"
    },
    {
      "inputs": [
        {
          "internalType": "uint256",
          "name": "profit",
          "type": "uint256"
        }
      ],
      "name": "distribute",
      "outputs": [],
      "stateMutability": "nonpayable",
      "type": "function"
    },
    {
      "inputs": [],
      "name": "insurance",
      "outputs": [
        {
          "internalType": "address",
          "name": "",
          "type": "address"
        }
      ],
      "stateMutability": "view",
      "type": "function"
    },
    {
      "inputs": [],
      "name": "insuranceCut",
      "outputs": [
        {
          "internalType": "uint256",
          "name": "",
          "type": "uint256"
        }
      ],
      "stateMutability": "view",
      "type": "function"
    },
    {
      "inputs": [],
      "name": "perfCut",
      "outputs": [
        {
          "internalType": "uint256",
          "name": "",
          "type": "uint256"
        }
      ],
      "stateMutability": "view",
      "type": "function"
    },
    {
      "inputs": [],
      "name": "perfToken",
      "outputs": [
        {
          "internalType": "address",
          "name": "",
          "type": "address"
        }
      ],
      "stateMutability": "view",
      "type": "function"
    },
    {
      "inputs": [],
      "name": "vault",
      "outputs": [
        {
          "internalType": "address",
          "name": "",
          "type": "address"
        }
      ],
      "stateMutability": "view",
      "type": "function"
    }
  ],
  "bytecode": "0x60806040523480156200001157600080fd5b50604051620010083803806200100883398181016040528101906200003791906200042a565b600073ffffffffffffffffffffffffffffffffffffffff168773ffffffffffffffffffffffffffffffffffffffff1603620000a9576040517f08c379a0000000000000000000000000000000000000000000000000000000008152600401620000a0906200053e565b60405180910390fd5b600073ffffffffffffffffffffffffffffffffffffffff168673ffffffffffffffffffffffffffffffffffffffff16036200011b576040517f08c379a00000000000000000000000000000000000000000000000000000000081526004016200011290620005b0565b60405180910390fd5b600073ffffffffffffffffffffffffffffffffffffffff168573ffffffffffffffffffffffffffffffffffffffff16036200018d576040517f08c379a0000000000000000000000000000000000000000000000000000000008152600401620001849062000622565b60405180910390fd5b600073ffffffffffffffffffffffffffffffffffffffff168473ffffffffffffffffffffffffffffffffffffffff1603620001ff576040517f08c379a0000000000000000000000000000000000000000000000000000000008152600401620001f69062000694565b60405180910390fd5b612710818385620002119190620006e5565b6200021d9190620006e5565b1462000260576040517f08c379a0000000000000000000000000000000000000000000000000000000008152600401620002579062000770565b60405180910390fd5b866000806101000a81548173ffffffffffffffffffffffffffffffffffffffff021916908373ffffffffffffffffffffffffffffffffffffffff16021790555085600160006101000a81548173ffffffffffffffffffffffffffffffffffffffff021916908373ffffffffffffffffffffffffffffffffffffffff16021790555084600260006101000a81548173ffffffffffffffffffffffffffffffffffffffff021916908373ffffffffffffffffffffffffffffffffffffffff16021790555083600360006101000a81548173ffffffffffffffffffffffffffffffffffffffff021916908373ffffffffffffffffffffffffffffffffffffffff1602179055508260048190555081600581905550806006819055505050505050505062000792565b600080fd5b600073ffffffffffffffffffffffffffffffffffffffff82169050919050565b6000620003b7826200038a565b9050919050565b620003c981620003aa565b8114620003d557600080fd5b50565b600081519050620003e981620003be565b92915050565b6000819050919050565b6200040481620003ef565b81146200041057600080fd5b50565b6000815190506200042481620003f9565b92915050565b600080600080600080600060e0888a0312156200044c576200044b62000385565b5b60006200045c8a828b01620003d8565b97505060206200046f8a828b01620003d8565b9650506040620004828a828b01620003d8565b9550506060620004958a828b01620003d8565b9450506080620004a88a828b0162000413565b93505060a0620004bb8a828b0162000413565b92505060c0620004ce8a828b0162000413565b91505092959891949750929550565b600082825260208201905092915050565b7f494e565f5641554c545f5a45524f000000000000000000000000000000000000600082015250565b600062000526600e83620004dd565b91506200053382620004ee565b602082019050919050565b60006020820190508181036000830152620005598162000517565b9050919050565b7f494e565f504552465f5a45524f00000000000000000000000000000000000000600082015250565b600062000598600d83620004dd565b9150620005a58262000560565b602082019050919050565b60006020820190508181036000830152620005cb8162000589565b9050919050565b7f494e565f4147454e545f5a45524f000000000000000000000000000000000000600082015250565b60006200060a600e83620004dd565b91506200061782620005d2565b602082019050919050565b600060208201905081810360008301526200063d81620005fb565b9050919050565b7f494e565f494e535f5a45524f0000000000000000000000000000000000000000600082015250565b60006200067c600c83620004dd565b9150620006898262000644565b602082019050919050565b60006020820190508181036000830152620006af816200066d565b9050919050565b7f4e487b7100000000000000000000000000000000000000000000000000000000600052601160045260246000fd5b6000620006f282620003ef565b9150620006ff83620003ef565b92508282019050808211156200071a5762000719620006b6565b5b92915050565b7f494e565f544f54414c5f43555400000000000000000000000000000000000000600082015250565b600062000758600d83620004dd565b9150620007658262000720565b602082019050919050565b600060208201905081810360008301526200078b8162000749565b9050919050565b61086680620007a26000396000f3fe608060405234801561001057600080fd5b50600436106100885760003560e01c8063a70ba1c91161005b578063a70ba1c914610103578063b735b41314610121578063f5ff5c761461013f578063fbfa77cf1461015d57610088565b806331ff1b201461008d57806380e65927146100ab57806389cf3204146100c957806391c05b0b146100e7575b600080fd5b61009561017b565b6040516100a2919061059f565b60405180910390f35b6100b3610181565b6040516100c0919061059f565b60405180910390f35b6100d1610187565b6040516100de91906105fb565b60405180910390f35b61010160048036038101906100fc9190610647565b6101ad565b005b61010b610510565b604051610118919061059f565b60405180910390f35b610129610516565b60405161013691906105fb565b60405180910390f35b61014761053c565b60405161015491906105fb565b60405180910390f35b610165610562565b60405161017291906105fb565b60405180910390f35b60045481565b60055481565b600360009054906101000a900473ffffffffffffffffffffffffffffffffffffffff1681565b600081116101f0576040517f08c379a00000000000000000000000000000000000000000000000000000000081526004016101e7906106d1565b60405180910390fd5b6000612710600454836102039190610720565b61020d9190610791565b90506000612710600554846102229190610720565b61022c9190610791565b90506000612710600654856102419190610720565b61024b9190610791565b9050600160009054906101000a900473ffffffffffffffffffffffffffffffffffffffff1673ffffffffffffffffffffffffffffffffffffffff166340c10f1930866040518363ffffffff1660e01b81526004016102aa9291906107c2565b600060405180830381600087803b1580156102c457600080fd5b505af11580156102d8573d6000803e3d6000fd5b50505050600160009054906101000a900473ffffffffffffffffffffffffffffffffffffffff1673ffffffffffffffffffffffffffffffffffffffff166340c10f19600260009054906101000a900473ffffffffffffffffffffffffffffffffffffffff16846040518363ffffffff1660e01b815260040161035b9291906107c2565b600060405180830381600087803b15801561037557600080fd5b505af1158015610389573d6000803e3d6000fd5b50505050600160009054906101000a900473ffffffffffffffffffffffffffffffffffffffff1673ffffffffffffffffffffffffffffffffffffffff166340c10f19600360009054906101000a900473ffffffffffffffffffffffffffffffffffffffff16836040518363ffffffff1660e01b815260040161040c9291906107c2565b600060405180830381600087803b15801561042657600080fd5b505af115801561043a573d6000803e3d6000fd5b50505050600160009054906101000a900473ffffffffffffffffffffffffffffffffffffffff1673ffffffffffffffffffffffffffffffffffffffff166340c10f1933856040518363ffffffff1660e01b815260040161049b9291906107c2565b600060405180830381600087803b1580156104b557600080fd5b505af11580156104c9573d6000803e3d6000fd5b505050507f78490b24a020086d2701460dc169a540280c517bef9cdcd742f751a9099922a38484848460405161050294939291906107eb565b60405180910390a150505050565b60065481565b600160009054906101000a900473ffffffffffffffffffffffffffffffffffffffff1681565b600260009054906101000a900473ffffffffffffffffffffffffffffffffffffffff1681565b60008054906101000a900473ffffffffffffffffffffffffffffffffffffffff1681565b6000819050919050565b61059981610586565b82525050565b60006020820190506105b46000830184610590565b92915050565b600073ffffffffffffffffffffffffffffffffffffffff82169050919050565b60006105e5826105ba565b9050919050565b6105f5816105da565b82525050565b600060208201905061061060008301846105ec565b92915050565b600080fd5b61062481610586565b811461062f57600080fd5b50565b6000813590506106418161061b565b92915050565b60006020828403121561065d5761065c610616565b5b600061066b84828501610632565b91505092915050565b600082825260208201905092915050565b7f494e565f4e4f5f50524f46495400000000000000000000000000000000000000600082015250565b60006106bb600d83610674565b91506106c682610685565b602082019050919050565b600060208201905081810360008301526106ea816106ae565b9050919050565b7f4e487b7100000000000000000000000000000000000000000000000000000000600052601160045260246000fd5b600061072b82610586565b915061073683610586565b925082820261074481610586565b9150828204841483151761075b5761075a6106f1565b5b5092915050565b7f4e487b7100000000000000000000000000000000000000000000000000000000600052601260045260246000fd5b600061079c82610586565b91506107a783610586565b9250826107b7576107b6610762565b5b828204905092915050565b60006040820190506107d760008301856105ec565b6107e46020830184610590565b9392505050565b60006080820190506108006000830187610590565b61080d6020830186610590565b61081a6040830185610590565b6108276060830184610590565b9594505050505056fea26469706673582212208b6ff29e42f0f30349f96fb2a925f19cdc4a32a30d37efc7beb877b5cccf10a864736f6c63430008150033",
  "linkReferences": {},
  "deployedLinkReferences": {}
}